S01C0000484E5F4C6F52615F4343555F426F6F746C6F61642E73726563D8
S3150800000030040020ED4000087140000873400008E5
S315080000107540000877400008794000080000000095
S315080000200000000000000000000000007B400008FF
S315080000307D400008000000007F400008814000085D
S31508000040094100080D410008114100081541000842
S31508000050194100081D4100082141000825410008F2
S31508000060294100082D4100083141000835410008A2
S31508000070394100083D410008414100084541000852
S31508000080494100084D410008514100085541000802
S31508000090594100085D4100086141000865410008B2
S315080000A0694100086D410008714100087541000862
S315080000B0794100087D410008814100088541000812
S315080000C0894100088D4100089141000895410008C2
S315080000D0994100089D410008A1410008A541000872
S315080000E0A9410008AD410008B1410008B541000822
S315080000F0B9410008BD410008C1410008C5410008D2
S31508000100C9410008CD410008D1410008D541000881
S31508000110D9410008DD410008E1410008E541000831
S31508000120E9410008ED410008F1410008F5410008E1
S315080001302DE9F04F531002EB93739B1088B0012BF7
S3150800014007DB00AC50F8045B2DBA44F8045B5B1E71
S31508000150F8D1102A07D0182A43D0202A00F0878021
S3150800016008B0BDE8F08F00AE7068B268009BF6680C
S31508000170DFF8D44DDFF8D47D0B6048608A60CE6026
S315080001805FF00A054FEA064E4FEA06294FEA1E6E49
S315080001904FEA19691EF807E019F807904FEA0E4E5C
S315080001A04EEA09695FFA86FE1EF807E049EA0E2953
S315080001B04FEA166E1EF807E04EEA090954F804EBF2
S315080001C08EEA090989EA0303584041F8103F42407C
S315080001D0486056408A60CE606D1ED3D108B0BDE82F
S315080001E0F08F0098086000AE00987268DFF8589D96
S315080001F0DFF858CD4A604FF0080E7268B3688B6016
S31508000200F468B368CC603569F4680D617769356957
S315080002104F61766937023F0E17F80C8037043F0E98
S3150800022017F80C703F0447EA0868F7B217F80C701D
S3150800023048EA0728370E17F80C7047EA080859F8ED
S31508000240047B87EA08077840424041F8180F534074
S315080002504A605C408B60CC60BEF1010E1FBF6540F2
S315080002606E400D614E61D5D108B0BDE8F08FDFF85C
S31508000270DCCC00AE0A4600997368B468F56811606C
S3150800028053609460D5603069D6F814E01061C2F8FE
S3150800029014E0D6F81880F769DFF8AC6CC2F8188055
S315080002A0D7614FF0070929E04FEA052B4FEA1B6B88
S315080002B04FEA156A1BF80CB01AF80CA04FEA0B4B5C
S315080002C04BEA0A6A4FEA054B4FEA1B6B1BF80CB060
S315080002D04AEA0B2A5FFA85FB1BF80CB04BEA0A0AB6
S315080002E08AEA000080EA0E0E10618EEA0808C2F853
S315080002F014E088EA0707C2F81880D7614FEA074B67
S315080003004FEA072A4FEA1B6B4FEA1A6A1BF80CB02A
S315080003101AF80CA04FEA0B4B4BEA0A6A5FFA87FBFE
S315080003201BF80CB04AEA0B2A4FEA176B1BF80CB0FD
S315080003304BEA0A0A56F804BB8BEA0A0A8AEA01015A
S315080003404B4042F8201F5C40536065409460D5607E
S31508000350B9F10109A8D108B0BDE8F08FF0B5046875
S3150800036042688368C768DFF8E00BDFF8E06B0C606B
S315080003704A608B60CF600A254FEA074E4FEA072C82
S315080003804FEA1E6E4FEA1C6C1EF806E01CF806C003
S315080003904FEA0E4E4EEA0C6C5FFA87FE1EF806E030
S315080003A04CEA0E2C4FEA176E1EF806E04EEA0C0CC5
S315080003B050F804EB8EEA0C0C8CEA0404624041F80F
S315080003C0104F53404A605F408B60CF606D1ED3D19B
S315080003D0F0BD00002DE9F04105460C46FFF7BEFFCB
S315080003E02868DFF8681BDFF8442E206068686060BC
S315080003F0A868A060E868E0605FF0090054F8107F1C
S315080004004FEA074C4FEA072E5FFA87F84FEA1E6E47
S315080004103F0E4FEA1C6C1EF801E07F5C1CF801C019
S3150800042052F82EE018F8018052F8277052F82CC0BE
S3150800043052F828806668A368E56887EA3E2787EA4F
S315080004403C4787EA386727604FEA062C37045FFA85
S3150800045086FE4FEA1C6C360E3F0E1CF801C0765C11
S315080004607F5C52F82CC01EF801E052F8266052F85C
S31508000470277052F82EE086EA3C2686EA374686EA50
S315080004803E6666601F021E045FFA83FC3F0E1B0E63
S31508000490360E7F5C5B5C765C52F827701CF801C0F0
S315080004A052F8233052F8266052F82CC083EA3723D4
S315080004B083EA364383EA3C63A3602E022B04EFB239
S315080004C0360E2D0E1B0E765C6D5C5B5C52F8266054
S315080004D07F5C52F8255052F8233052F8277085EA87
S315080004E0362585EA334383EA3763E360401E85D1C0
S315080004F0BDE8F0812DE9F24F89B00521039101236A
S3150800050000210091DFF8281D8B608B6800930B682B
S315080005100093009B13F1010F13D1009B0B60096830
S315080005200091009969B90168136883EA0105416871
S31508000530536883EA010481689368C06883EA0109FD
S3150800054059E041685368006883EA0105116881EA41
S3150800055000094C464B4651E0DDF81CB050F82BB06C
S31508000560CDF820B0C9B2DDF818B050F82BB050F865
S31508000570277050F8255087EA3B270097DDF800B02A
S31508000580089F50F8233050F8211050F824408BEA81
S31508000590374787EA3565019F7D40059F50F82770E4
S315080005A084EA332383EA374383EA3161536883EA6B
S315080005B0010450F8263050F8291050F82A60DDF862
S315080005C0089050F8297086EA332383EA3141936804
S315080005D0049E50F8266081EA376183EA010950F8DB
S315080005E02C1050F82E3050F8280080EA332080EA84
S315080005F0314080EA3660D16881EA0003DFF8340CBE
S3150800060026024FEA0941360E4FEA156C090E50F8D4
S31508000610266050F82CC050F821105FFA83FA8CEA4D
S31508000620362650F82A7086EA3141166981EA37611A
S3150800063071404FEA09271E044FEA176A4FEA146EFB
S31508000640360E50F82A7050F82EE050F826605FFAF9
S3150800065085FC8EEA372750F82CC087EA3646576954
S3150800066086EA3C667E4001961F022E044FEA176A08
S315080006704FEA196E360E50F82A7050F82EE050F8E8
S3150800068026605FFA84FC8EEA372750F82CC087EA82
S315080006903646976986EA3C667E40029624042E0210
S315080006A0360E1B0E240E50F8266050F8233050F8EC
S315080006B024405FFA89F983EA362350F8295083EAF9
S315080006C03443D46983EA3563634000930C04039B7F
S315080006D05B1E03934FEA1469019B1B044FEA136CD4
S315080006E00B024FEA136E009B4FEA13681E02029B29
S315080006F04FEA136A009B1C04240E0594360E029DCD
S31508000700029B019C2F043F0E07971B02019D2F0297
S315080007103F0E02AD06971B0E2D780495240E01ADEB
S315080007200F0E2D78029552F8205F019500ADDDF881
S315080007300CB02D78BBF1010FBFF60EAFDFF80C0831
S31508000740DFF808B8385C069F17F80B7015F80B50D9
S315080007503F0447EA0060079F17F80B7040EA072036
S315080007602843019D6840099D2860C9B25846205C07
S315080007705C461B5D095D1B0443EA0060059B1B5D27
S3150800078040EA032008435168484009994860315DAA
S315080007901AF80400090441EA006019F8041040EA4E
S315080007A001200299095D08439168484009998860C3
S315080007B01EF8041018F80400090441EA00601CF841
S315080007C0041040EA01200499095D0843D1684840AD
S315080007D00999C8600AB0BDE8F08F2DE9F24F89B0D3
S315080007E0014605200390012302F1A0000022009291
S315080007F0DFF83C2A93609368009313680093009B84
S3150800080013F1010F13D1009B136012680092009A2E
S315080008106AB90A68036883EA02054A68436883EA8C
S3150800082002048A688368C96883EA020954E04A6848
S315080008304368896883EA020982684D4682EA0104A8
S315080008404B464CE0079F51F827700897D2B2069F8F
S3150800085051F8277051F8266051F8255086EA372650
S315080008600096009F089E51F8233051F8244051F80D
S315080008702BB051F8222087EA364686EA3565029E6D
S31508000880019F51F827707540059E51F8266084EA45
S31508000890332383EA3643446851F82A6083EA376388
S315080008A05C4051F82930DDF8109051F829708BEA30
S315080008B0362686EA3343866883EA376386EA030977
S315080008C051F82C3051F82E6051F8281081EA36215B
S315080008D081EA334181EA3261C26882EA0103DFF8BC
S315080008E04C191E024FEA09424FEA166A4FEA156C7E
S315080008F0120E51F82A6051F82CC051F822202038DF
S315080009005FFA84FB8CEA362651F82B7086EA324267
S31508000910066982EA376272402F021E044FEA176B95
S315080009204FEA146E4FEA166A51F82B7051F82EE00A
S3150800093051F82A605FFA89FC8EEA372751F82CC0ED
S3150800094087EA3646476986EA3C667E40009627026D
S315080009502E044FEA176B4FEA196E4FEA166A51F8DA
S315080009602B7051F82EE051F82A605FFA83FC8EEA64
S31508000970372751F82CC087EA3646876986EA3C66E7
S315080009807E40029624044FEA09264FEA16691B0E92
S31508000990240E51F8296051F8233051F82440EDB25D
S315080009A083EA362351F8255083EA3443C46983EA37
S315080009B0356363400193039B5B1E0393009B1B04F3
S315080009C04FEA136C029B1B024FEA136E019B4FEA18
S315080009D0136813044FEA1369009B1B024FEA136A54
S315080009E0029B4FEA136B019B1C04240E0594130209
S315080009F0029D009C2E04360E07961B0E019D2E02A4
S31508000A00360E01AD0696240E2F78049702AD160E03
S31508000A102F78019700AD07682D780297039F012F5D
S31508000A20BFF610AFDFF8001DDFF8FC7C715C069E90
S31508000A30F65DED5D360446EA0161079EF65D41EA1C
S31508000A4006212943029D6940099D2960D2B2DB5DD2
S31508000A50E15D1B0443EA0161059BDB5D41EA032175
S31508000A60019BDB5D194343685940099B59601AF895
S31508000A7007301BF807101B0443EA016119F8073011
S31508000A8041EA0321049BDB5D194383685940099BAE
S31508000A9099601EF8073018F80710D25DC0681B0465
S31508000AA043EA01611CF8073041EA03211143484033
S31508000AB00999C8600AB0BDE8F08F2DE9F0430268CD
S31508000AC0DFF888C40A60436802684B608468436834
S31508000AD08C60C5688468CD600669C5680E6147691B
S31508000AE006694F610827D0F814E00FF6200005E0E4
S31508000AF06E4086EA0E0E0E61C1F814E04FEA0E4902
S31508000B004FEA0E284FEA19694FEA186819F80C9047
S31508000B1018F80C804FEA094949EA08685FFA8EF91D
S31508000B2019F80C9048EA09284FEA1E6919F80C903A
S31508000B3049EA080850F8049B89EA080888EA020284
S31508000B40534041F8182F5C404B6065408C60CD607F
S31508000B507F1ECDD1BDE8F0832DE9F0410C46FFF7A5
S31508000B60ACFF0B20DFF8E413DFF8C02B54F8107F36
S31508000B704FEA074C4FEA072E5FFA87F84FEA1E6ED0
S31508000B803F0E4FEA1C6C1EF801E07F5C1CF801C0A2
S31508000B9052F82EE018F8018052F8277052F82CC047
S31508000BA052F828806668A368E56887EA3E2787EAD8
S31508000BB03C4787EA386727604FEA062C37045FFA0E
S31508000BC086FE4FEA1C6C360E3F0E1CF801C0765C9A
S31508000BD07F5C52F82CC01EF801E052F8266052F8E5
S31508000BE0277052F82EE086EA3C2686EA374686EAD9
S31508000BF03E6666601F021E045FFA83FC3F0E1B0EEC
S31508000C00360E7F5C5B5C765C52F827701CF801C078
S31508000C1052F8233052F8266052F82CC083EA37235C
S31508000C2083EA364383EA3C63A3602E022B04EFB2C1
S31508000C30360E2D0E1B0E765C6D5C5B5C52F82660DC
S31508000C407F5C52F8255052F8233052F8277085EA0F
S31508000C50362585EA334383EA3763E360401E85D148
S31508000C60BDE8F0812DE9F24F89B0062103910123F1
S31508000C7000210091DFF8B8158B608B6800930B682C
S31508000C800093009B13F1010F13D1009B0B600968B9
S31508000C900091009969B90168136883EA01054168FA
S31508000CA0536883EA010481689368C06883EA010986
S31508000CB059E041685368006883EA0105116881EACA
S31508000CC000094C464B4651E0DDF81CB050F82BB0F5
S31508000CD0CDF820B0C9B2DDF818B050F82BB050F8EE
S31508000CE0277050F8255087EA3B270097DDF800B0B3
S31508000CF0089F50F8233050F8211050F824408BEA0A
S31508000D00374787EA3565019F7D40059F50F827706C
S31508000D1084EA332383EA374383EA3161536883EAF3
S31508000D20010450F8263050F8291050F82A60DDF8EA
S31508000D30089050F8297086EA332383EA314193688C
S31508000D40049E50F8266081EA376183EA010950F863
S31508000D502C1050F82E3050F8280080EA332080EA0C
S31508000D60314080EA3660D16881EA00030FF6C01088
S31508000D7026024FEA0941360E4FEA156C090E50F85D
S31508000D80266050F82CC050F821105FFA83FA8CEAD6
S31508000D90362650F82A7086EA3141166981EA3761A3
S31508000DA071404FEA09271E044FEA176A4FEA146E84
S31508000DB0360E50F82A7050F82EE050F826605FFA82
S31508000DC085FC8EEA372750F82CC087EA36465769DD
S31508000DD086EA3C667E4001961F022E044FEA176A91
S31508000DE04FEA196E360E50F82A7050F82EE050F871
S31508000DF026605FFA84FC8EEA372750F82CC087EA0B
S31508000E003646976986EA3C667E40029624042E0298
S31508000E10360E1B0E240E50F8266050F8233050F874
S31508000E2024405FFA89F983EA362350F8295083EA81
S31508000E303443D46983EA3563634000930C04039B07
S31508000E405B1E03934FEA1469019B1B044FEA136C5C
S31508000E500B024FEA136E009B4FEA13681E02029BB1
S31508000E604FEA136A009B1C04240E0594360E029D55
S31508000E70029B019C2F043F0E07971B02019D2F0220
S31508000E803F0E02AD06971B0E2D780495240E01AD74
S31508000E900F0E2D78029552F8205F019500ADDDF80A
S31508000EA00CB02D78BBF1010FBFF60EAF2748DFF85F
S31508000EB09CB0385C069F17F80B7015F80B503F046A
S31508000EC047EA0060079F17F80B7040EA0720284397
S31508000ED0019D6840099D2860C9B25846205C5C4659
S31508000EE01B5D095D1B0443EA0060059B1B5D40EA28
S31508000EF0032008435168484009994860315D1AF84B
S31508000F000400090441EA006019F8041040EA0120C7
S31508000F100299095D084391684840099988601EF856
S31508000F20041018F80400090441EA00601CF80410CB
S31508000F3040EA01200499095D0843D16848400999A7
S31508000F40C8600AB0BDE8F08F0C130008301B000813
S31508000F502DE9F24F89B0014606200390012302F1DC
S31508000F60C00000220092B24A936093680093136807
S31508000F700093009B13F1010F13D1009B13601268B5
S31508000F800092009A6AB90A68036883EA02054A6801
S31508000F90436883EA02048A688368C96883EA02099F
S31508000FA054E04A684368896883EA020982684D46BC
S31508000FB082EA01044B464CE0079F51F827700897D0
S31508000FC0D2B2069F51F8277051F8266051F825507D
S31508000FD086EA37260096009F089E51F8233051F876
S31508000FE0244051F82BB051F8222087EA364686EA83
S31508000FF03565029E019F51F827707540059E51F888
S31508001000266084EA332383EA3643446851F82A6023
S3150800101083EA37635C4051F82930DDF8109051F8BF
S3150800102029708BEA362686EA3343866883EA37636D
S3150800103086EA030951F82C3051F82E6051F8281029
S3150800104081EA362181EA334181EA3261C26882EA5D
S31508001050010376491E024FEA09424FEA166A4FEA29
S31508001060156C120E51F82A6051F82CC051F822203E
S3150800107020385FFA84FB8CEA362651F82B7086EA0C
S315080010803242066982EA376272402F021E044FEA2C
S31508001090176B4FEA146E4FEA166A51F82B7051F81F
S315080010A02EE051F82A605FFA89FC8EEA372751F854
S315080010B02CC087EA3646476986EA3C667E40009633
S315080010C027022E044FEA176B4FEA196E4FEA166A83
S315080010D051F82B7051F82EE051F82A605FFA83FC1C
S315080010E08EEA372751F82CC087EA3646876986EA9A
S315080010F03C667E40029624044FEA09264FEA1669A2
S315080011001B0E240E51F8296051F8233051F824405B
S31508001110EDB283EA362351F8255083EA3443C4698D
S3150800112083EA356363400193039B5B1E0393009B2D
S315080011301B044FEA136C029B1B024FEA136E019BBA
S315080011404FEA136813044FEA1369009B1B024FEA20
S31508001150136A029B4FEA136B019B1C04240E059429
S315080011601302029D009C2E04360E07961B0E019D47
S315080011702E02360E01AD0696240E2F78049702AD80
S31508001180160E2F78019700AD07682D780297039FF2
S31508001190002F7FF411AFDFF89015DFF88C75715CBE
S315080011A0069EF65DED5D360446EA0161079EF65D2C
S315080011B041EA06212943029D6940099D2960D2B268
S315080011C0DB5DE15D1B0443EA0161059BDB5D41EAEA
S315080011D00321019BDB5D194343685940099B59600C
S315080011E01AF807301BF807101B0443EA016119F8BF
S315080011F0073041EA0321049BDB5D194383685940A4
S31508001200099B99601EF8073018F80710D25DC06868
S315080012101B0443EA01611CF8073041EA0321114324
S3150800122048400999C8600AB0BDE8F08F141F000845
S3150800123000300240301700082DE9F04F06460A46EE
S3150800124031687368D6F80890F5680FF2C00A0FF689
S31508001250E00C11605360C2F80890D5603069D6F882
S3150800126014E01061C2F814E0D6F81880F469C2F8E0
S315080012701880D4614FF0070B20E02F023F0E2E0E88
S3150800128017F80C7016F80C603F0447EA06662F0438
S315080012903F0E17F80C7046EA0726EFB217F80C70DF
S315080012A03E43704080EA0E0E10618EEA0808C2F8C6
S315080012B014E088EA0404C2F81880D46127042602D8
S315080012C03F0E360E17F80C7016F80C603F0447EA06
S315080012D00666E7B217F80C7046EA0726270E17F8CF
S315080012E00C703E435AF8047B7E4071404B4042F8EE
S315080012F0201F83EA0909536089EA0505C2F80890A0
S31508001300D560BBF1010BB8D1BDE8F08F0000000134
S3150800131000000002000000040000000800000010A1
S315080013200000002000000040000000800000001BB4
S31508001330000000362DE9F0410C46FFF77DFF0D2031
S315080013400FF2EC710FF6CC3254F8107F4FEA074CC7
S315080013504FEA072E5FFA87F84FEA1E6E3F0E4FEAEE
S315080013601C6C1EF801E07F5C1CF801C052F82EE0E8
S3150800137018F8018052F8277052F82CC052F82880C5
S315080013806668A368E56887EA3E2787EA3C4787EAEE
S31508001390386727604FEA062C37045FFA86FE4FEA5D
S315080013A01C6C360E3F0E1CF801C0765C7F5C52F84A
S315080013B02CC01EF801E052F8266052F8277052F841
S315080013C02EE086EA3C2686EA374686EA3E66666068
S315080013D01F021E045FFA83FC3F0E1B0E360E7F5C4F
S315080013E05B5C765C52F827701CF801C052F8233013
S315080013F052F8266052F82CC083EA372383EA36432C
S3150800140083EA3C63A3602E022B04EFB2360E2D0E40
S315080014101B0E765C6D5C5B5C52F826607F5C52F84E
S31508001420255052F8233052F8277085EA362585EA82
S31508001430334383EA3763E360401E85D1BDE8F08114
S315080014402DE9F24F89B0072103910123002100916C
S31508001450DFF8BC1A8B608B6800930B680093009BBF
S3150800146013F1010F13D1009B0B60096800910099D5
S3150800147069B90168136883EA01054168536883EA14
S31508001480010481689368C06883EA010959E04168E4
S315080014905368806883EA010991684D4681EA000429
S315080014A04B4651E0DDF81CB050F82BB0CDF820B013
S315080014B0C9B2DDF818B050F82BB050F8277050F8BC
S315080014C0255087EA3B270097DDF800B0089F50F8BB
S315080014D0233050F8211050F824408BEA374787EA22
S315080014E03565019F7D40059F50F8277084EA3323B0
S315080014F083EA374383EA3161536883EA010450F883
S31508001500263050F8291050F82A60DDF8089050F86F
S31508001510297086EA332383EA31419368049E50F89A
S31508001520266081EA376183EA010950F82C1050F8E1
S315080015302E3050F8280080EA332080EA314080EACD
S315080015403660D16881EA00030FF2E41026024FEAFA
S315080015500941360E4FEA156C090E50F8266050F808
S315080015602CC050F821105FFA83FA8CEA362650F818
S315080015702A7086EA3141166981EA376171404FEA75
S3150800158009271E044FEA176A4FEA146E360E50F8FA
S315080015902A7050F82EE050F826605FFA85FC8EEA2D
S315080015A0372750F82CC087EA3646576986EA3C66DC
S315080015B07E4001961F022E044FEA176A4FEA196EFB
S315080015C0360E50F82A7050F82EE050F826605FFA6A
S315080015D084FC8EEA372750F82CC087EA3646976986
S315080015E086EA3C667E40029624042E02360E1B0EC0
S315080015F0240E50F8266050F8233050F824405FFA3D
S3150800160089F983EA362350F8295083EA3443D469A2
S3150800161083EA3563634000930C04039B5B1E0393C4
S315080016204FEA1469019B1B044FEA136C0B024FEA3D
S31508001630136E009B4FEA13681E02029B4FEA136A59
S31508001640009B1C04240E0594360E029D029B019CE9
S315080016502F043F0E07971B02019D2F023F0E02AD76
S3150800166006971B0E2D780495240E01AD0F0E2D78C6
S31508001670029552F8205F019500ADDDF80CB02D7883
S31508001680BBF1010FBFF60EAF0FF2A4400FF2A04B4D
S31508001690385C069F17F80B7015F80B503F0447EA9D
S315080016A00060079F17F80B7040EA07202843019D42
S315080016B06840099D2860C9B25846205C5C461B5D97
S315080016C0095D1B0443EA0060059B1B5D40EA032095
S315080016D008435168484009994860315D1AF8040082
S315080016E0090441EA006019F8041040EA0120029949
S315080016F0095D084391684840099988601EF80410F6
S3150800170018F80400090441EA00601CF8041040EACD
S3150800171001200499095D0843D16848400999C860C1
S315080017200AB0BDE8F08F000014230008141F000853
S31508001730A56363C6847C7CF8997777EE8D7B7BF608
S315080017400DF2F2FFBD6B6BD6B16F6FDE54C5C59156
S315080017505030306003010102A96767CE7D2B2B56F6
S3150800176019FEFEE762D7D7B5E6ABAB4D9A7676ECAF
S3150800177045CACA8F9D82821F40C9C989877D7DFA5D
S3150800178015FAFAEFEB5959B2C947478E0BF0F0FB39
S31508001790ECADAD4167D4D4B3FDA2A25FEAAFAF45C5
S315080017A0BF9C9C23F7A4A453967272E45BC0C09BAB
S315080017B0C2B7B7751CFDFDE1AE93933D6A26264C6C
S315080017C05A36366C413F3F7E02F7F7F54FCCCC834D
S315080017D05C343468F4A5A55134E5E5D108F1F1F98E
S315080017E0937171E273D8D8AB533131623F15152A1C
S315080017F00C04040852C7C795652323465EC3C39DD8
S3150800180028181830A19696370F05050AB59A9A2F03
S315080018100907070E361212249B80801B3DE2E2DF81
S3150800182026EBEBCD6927274ECDB2B27F9F7575EAB9
S315080018301B0909129E83831D742C2C582E1A1A34E0
S315080018402D1B1B36B26E6EDCEE5A5AB4FBA0A05B9B
S31508001850F65252A44D3B3B7661D6D6B7CEB3B37D8E
S315080018607B2929523EE3E3DD712F2F5E978484138B
S31508001870F55353A668D1D1B9000000002CEDEDC18F
S31508001880602020401FFCFCE3C8B1B179ED5B5BB674
S31508001890BE6A6AD446CBCB8DD9BEBE674B39397280
S315080018A0DE4A4A94D44C4C98E85858B04ACFCF856B
S315080018B06BD0D0BB2AEFEFC5E5AAAA4F16FBFBED06
S315080018C0C5434386D74D4D9A55333366948585115E
S315080018D0CF45458A10F9F9E906020204817F7FFEA1
S315080018E0F05050A0443C3C78BA9F9F25E3A8A84BEB
S315080018F0F35151A2FEA3A35DC04040808A8F8F0595
S31508001900AD92923FBC9D9D214838387004F5F5F19B
S31508001910DFBCBC63C1B6B67775DADAAF632121429C
S31508001920301010201AFFFFE50EF3F3FD6DD2D2BF7B
S315080019304CCDCD81140C0C18351313262FECECC3A3
S31508001940E15F5FBEA2979735CC4444883917172EB6
S3150800195057C4C493F2A7A755827E7EFC473D3D7ABD
S31508001960AC6464C8E75D5DBA2B191932957373E6E2
S31508001970A06060C098818119D14F4F9E7FDCDCA39F
S31508001980662222447E2A2A54AB90903B8388880B91
S31508001990CA46468C29EEEEC7D3B8B86B3C14142851
S315080019A079DEDEA7E25E5EBC1D0B0B1676DBDBADD1
S315080019B03BE0E0DB563232644E3A3A741E0A0A14A9
S315080019C0DB4949920A06060C6C242448E45C5CB898
S315080019D05DC2C29F6ED3D3BDEFACAC43A66262C4F0
S315080019E0A8919139A495953137E4E4D38B7979F2A6
S315080019F032E7E7D543C8C88B5937376EB76D6DDA06
S31508001A008C8D8D0164D5D5B1D24E4E9CE0A9A949DD
S31508001A10B46C6CD8FA5656AC07F4F4F325EAEACF58
S31508001A20AF6565CA8E7A7AF4E9AEAE47180808102B
S31508001A30D5BABA6F887878F06F25254A722E2E5C4B
S31508001A40241C1C38F1A6A657C7B4B47351C6C6974A
S31508001A5023E8E8CB7CDDDDA19C7474E8211F1F3EDA
S31508001A60DD4B4B96DCBDBD61868B8B0D858A8A0F57
S31508001A70907070E0423E3E7CC4B5B571AA6666CCED
S31508001A80D84848900503030601F6F6F7120E0E1C11
S31508001A90A36161C25F35356AF95757AED0B9B969DE
S31508001AA09186861758C1C199271D1D3AB99E9E274A
S31508001AB038E1E1D913F8F8EBB398982B33111122D2
S31508001AC0BB6969D270D9D9A9898E8E07A794943330
S31508001AD0B69B9B2D221E1E3C9287871520E9E9C9D5
S31508001AE049CECE87FF5555AA782828507ADFDFA534
S31508001AF08F8C8C03F8A1A15980898909170D0D1AB5
S31508001B00DABFBF6531E6E6D7C6424284B86868D010
S31508001B10C3414182B0999929772D2D5A110F0F1E6D
S31508001B20CBB0B07BFC5454A8D6BBBB6D3A16162C6A
S31508001B30637C777BF26B6FC53001672BFED7AB767C
S31508001B40CA82C97DFA5947F0ADD4A2AF9CA472C027
S31508001B50B7FD9326363FF7CC34A5E5F171D8311594
S31508001B6004C723C31896059A071280E2EB27B275B5
S31508001B7009832C1A1B6E5AA0523BD6B329E32F842D
S31508001B8053D100ED20FCB15B6ACBBE394A4C58CF25
S31508001B90D0EFAAFB434D338545F9027F503C9FA8F9
S31508001BA051A3408F929D38F5BCB6DA2110FFF3D2C7
S31508001BB0CD0C13EC5F974417C4A77E3D645D19737B
S31508001BC060814FDC222A908846EEB814DE5E0BDB75
S31508001BD0E0323A0A4906245CC2D3AC629195E479AC
S31508001BE0E7C8376D8DD54EA96C56F4EA657AAE0806
S31508001BF0BA78252E1CA6B4C6E8DD741F4BBD8B8AA1
S31508001C00703EB5664803F60E613557B986C11D9E06
S31508001C10E1F8981169D98E949B1E87E9CE5528DF7D
S31508001C208CA1890DBFE6426841992D0FB054BB16A9
S31508001C302DE9F24F89B0014607200390012302F1EE
S31508001C40E00000220092B24A9360936800931368FA
S31508001C500093009B13F1010F13D1009B13601268C8
S31508001C600092009A6AB90A68036883EA02054A6814
S31508001C70436883EA02048A688368C96883EA0209B2
S31508001C8054E04A684368896883EA020982684D46CF
S31508001C9082EA01044B464CE0079F51F827700897E3
S31508001CA0D2B2069F51F8277051F8266051F8255090
S31508001CB086EA37260096009F089E51F8233051F889
S31508001CC0244051F82BB051F8222087EA364686EA96
S31508001CD03565029E019F51F827707540059E51F89B
S31508001CE0266084EA332383EA3643446851F82A6037
S31508001CF083EA37635C4051F82930DDF8109051F8D3
S31508001D0029708BEA362686EA3343866883EA376380
S31508001D1086EA030951F82C3051F82E6051F828103C
S31508001D2081EA362181EA334181EA3261C26882EA70
S31508001D3001030FF2E0111E024FEA09424FEA166A42
S31508001D404FEA156C120E51F82A6051F82CC051F85A
S31508001D50222020385FFA84FB8CEA362651F82B704D
S31508001D6086EA3242066982EA376272402F021E0408
S31508001D704FEA176B4FEA146E4FEA166A51F82B7042
S31508001D8051F82EE051F82A605FFA89FC8EEA372767
S31508001D9051F82CC087EA3646476986EA3C667E4093
S31508001DA0009627022E044FEA176B4FEA196E4FEA80
S31508001DB0166A51F82B7051F82EE051F82A605FFA2E
S31508001DC083FC8EEA372751F82CC087EA364687699E
S31508001DD086EA3C667E40029624044FEA09264FEAC4
S31508001DE016691B0E240E51F8296051F8233051F854
S31508001DF02440EDB283EA362351F8255083EA34436A
S31508001E00C46983EA356363400193039B5B1E0393AE
S31508001E10009B1B044FEA136C029B1B024FEA136ECE
S31508001E20019B4FEA136813044FEA1369009B1B02D0
S31508001E304FEA136A029B4FEA136B019B1C04240E9C
S31508001E4005941302029D009C2E04360E07961B0E5F
S31508001E50019D2E02360E01AD0696240E2F780497A4
S31508001E6002AD160E2F78019700AD07682D780297F8
S31508001E70039F012FBFF610AF0FF298410FF2944758
S31508001E80715C069EF65DED5D360446EA0161079EC5
S31508001E90F65D41EA06212943029D6940099D2960AC
S31508001EA0D2B2DB5DE15D1B0443EA0161059BDB5DA4
S31508001EB041EA0321019BDB5D194343685940099BAD
S31508001EC059601AF807301BF807101B0443EA01612A
S31508001ED019F8073041EA0321049BDB5D194383683F
S31508001EE05940099B99601EF8073018F80710D25D0B
S31508001EF0C0681B0443EA01611CF8073041EA032164
S31508001F00114348400999C8600AB0BDE8F08F00003F
S31508001F100030024050A7F4515365417EC3A4171AF6
S31508001F20965E273ACB6BAB3BF1459D1FAB58FAAC97
S31508001F309303E34B55FA3020F66D76AD9176CC884F
S31508001F40254C02F5FCD7E54FD7CB2AC58044352664
S31508001F508FA362B5495AB1DE671BBA25980EEA45C2
S31508001F60E1C0FE5D02752FC312F04C81A397468D22
S31508001F70C6F9D36BE75F8F03959C9215EB7A6DBF15
S31508001F80DA5952952D83BED4D32174582969E0496C
S31508001F9044C8C98E6A89C27578798EF46B3E589999
S31508001FA0DD71B927B64FE1BE17AD88F066AC20C91A
S31508001FB0B43ACE7D184ADF6382311AE56033519709
S31508001FC0457F5362E07764B184AE6BBB1CA081FE8B
S31508001FD0942B08F95868487019FD458F876CDE946C
S31508001FE0B7F87B5223D373ABE2024B72578F1FE3CA
S31508001FF02AAB55660728EBB203C2B52F9A7BC5866E
S31508002000A50837D3F2872830B2A5BF23BA6A0302D8
S315080020105C8216ED2B1CCF8A92B479A7F0F207F3EF
S31508002020A1E2694ECDF4DA65D5BE05061F6234D144
S315080020308AFEA6C49D532E34A055F3A232E18A0522
S3150800204075EBF6A439EC830BAAEF6040069F715E28
S3150800205051106EBDF98A213E3D06DD96AE053EDD80
S3150800206046BDE64DB58D5491055DC4716FD4060421
S31508002070FF15506024FB981997E9BDD6CC434089D3
S31508002080779ED967BD42E8B0888B8907385B19E720
S31508002090DBEEC879470A7CA1E90F427CC91E84F8A1
S315080020A0000000008386800948ED2B32AC70111EB3
S315080020B04E725A6CFBFF0EFD5638850F1ED5AE3D87
S315080020C027392D3664D90F0A21A65C68D1545B9B43
S315080020D03A2E3624B1670A0C0FE75793D296EEB418
S315080020E09E919B1B4FC5C080A220DC61694B775A25
S315080020F0161A121C0ABA93E2E52AA0C043E0223C4B
S315080021001D171B120B0D090EADC78BF2B9A8B62DFC
S31508002110C8A91E148519F1574C0775AFBBDD99EE92
S31508002120FD607FA39F2601F7BCF5725CC53B66443C
S31508002130347EFB5B7629438BDCC623CB68FCEDB685
S3150800214063F1E4B8CADC31D710856342402297139D
S315080021502011C6847D244A85F83DBBD21132F9AEDA
S315080021606DA129C74B2F9E1DF330B2DCEC52860DAC
S31508002170D0E3C1776C16B32B99B970A9FA489411B4
S315080021802264E947C48CFCA81A3FF0A0D82C7D56D7
S31508002190EF903322C74E4987C1D138D9FEA2CA8CDF
S315080021A0360BD498CF81F5A628DE7AA5268EB7DA1F
S315080021B0A4BFAD3FE49D3A2C0D9278509BCC5F6A44
S315080021C062467E54C2138DF6E8B8D8905EF7392E6B
S315080021D0F5AFC382BE805D9F7C93D069A92DD56F6C
S315080021E0B31225CF3B99ACC8A77D18106E639CE83F
S315080021F07BBB3BDB097826CDF418596E01B79AEC00
S31508002200A89A4F83656E95E67EE6FFAA08CFBC219D
S31508002210E6E815EFD99BE7BACE366F4AD4099FEAA6
S31508002220D67CB029AFB2A43131233F2A3094A5C653
S31508002230C066A23537BC4E74A6CA82FCB0D090E000
S3150800224015D8A7334A9804F1F7DAEC410E50CD7F3A
S315080022502FF691178DD64D764DB0EF43544DAACC37
S31508002260DF0496E4E3B5D19E1B886A4CB81F2CC1DF
S315080022707F51654604EA5E9D5D358C01737487FA65
S315080022802E410BFB5A1D67B352D2DB92335610E927
S315080022901347D66D8C61D79A7A0CA1378E14F859E4
S315080022A0893C13EBEE27A9CE35C961B7EDE51CE1EC
S315080022B03CB1477A59DFD29C3F73F25579CE141850
S315080022C0BF37C773EACDF7535BAAFD5F146F3DDFCF
S315080022D086DB447881F3AFCA3EC468B92C34243807
S315080022E05F40A3C272C31D160C25E2BC8B493C286D
S315080022F041950DFF7101A839DEB30C089CE4B4D8EA
S3150800230090C156646184CB7B70B632D5745C6C48D8
S315080023104257B8D052096AD53036A538BF40A39E71
S3150800232081F3D7FB7CE339829B2FFF87348E4344A6
S31508002330C4DEE9CB547B9432A6C2233DEE4C950B02
S3150800234042FAC34E082EA16628D924B2765BA24962
S315080023506D8BD12572F8F66486689816D4A45CCC81
S315080023605D65B6926C704850FDEDB9DA5E15465754
S31508002370A78D9D8490D8AB008CBCD30AF7E458058A
S31508002380B8B34506D02C1E8FCA3F0F02C1AFBD0396
S3150800239001138A6B3A9111414F67DCEA97F2CFCE67
S315080023A0F0B4E67396AC7422E7AD3585E2F937E802
S315080023B01C75DF6E47F11A711D29C5896FB7620E44
S315080023C0AA18BE1BFC563E4BC6D279209ADBC0FE25
S315080023D078CD5AF41FDDA8338807C731B1121059D2
S315080023E02780EC5F60517FA919B54A0D2DE57A9FC4
S315080023F093C99CEFA0E03B4DAE2AF5B0C8EBBB3CB9
S3150800240083539961172B047EBA77D626E16914633C
S3150800241055210C7D00B581B00B46002818BF002B4E
S315080024201AD0416A102918BF182904D0202918BFC4
S3150800243040F61F4012D1C260027902F0F902027119
S31508002440D20706D40A46836000F128011846FDF72C
S315080024506FFE002001B000BD4FF4426001B000BD20
S315080024602DE9F04784B004000D4690469A4618BFF9
S31508002470002D05D0BAF1000F1CBF0C9E002E04D10A
S315080024804FF4426004B0BDE8F087B8F1010F02DBF3
S3150800249018F00F0F04D040F61D4004B0BDE8F087D1
S315080024A0207980071AD44FF0000900AF286800BACF
S315080024B0009004F12802686800BA7860A86800BA33
S315080024C0B860E86800BAF860606A18280BD0202857
S315080024D000A900A80CD1FEF7B3FF0BE040F61E409A
S315080024E004B0BDE8F08700A900A8FEF7BBFB01E031
S315080024F0FEF700F8009800BA4AF8040B09F110092B
S31508002500786800BA4AF8040B1035B86800BA4AF871
S31508002510040BC145F86800BA4AF8040BC6DBC6F8CE
S315080025200090002004B0BDE8F087002818BF002AF4
S3150800253002D14FF442607047017941F002010171FE
S31508002540002010607047000030B589B0002818BF19
S3150800255000293BD0436A102B18BF182B04D0202B18
S3150800256018BF40F61F4033D1C260027902F0F90263
S315080025700271D20727D45A10816003EB9272283071
S315080025809210012A07DB00AC51F8045B2DBA44F817
S31508002590045B521EF8D1102B11D0182B08D0202B13
S315080025A011D1014600A8FEF7C5FE002009B030BDCE
S315080025B0014600A8FEF7D0FA002009B030BD014652
S315080025C000A8FDF707FF002009B030BD4FF44260B0
S315080025D009B030BD2DE9F04784B004000D46164613
S315080025E09A4618BF002D07D0BAF1000F1CBFDDF8B8
S315080025F03080B8F1000F04D14FF4426004B0BDE852
S31508002600F087012E06DBF01006EB10700011B6EB12
S31508002610001004D040F61D4004B0BDE8F0872079CC
S3150800262080071AD44FF0000900AF286800BA009056
S3150800263004F12802686800BA7860A86800BAB86029
S31508002640E86800BAF860606A18280BD0202800A944
S3150800265000A80CD1FFF7ECFA0BE040F61E4004B0D8
S31508002660BDE8F08700A900A8FEF772FC01E0FEF7B6
S31508002670B4F8009800BA4AF8040B09F1100978680A
S3150800268000BA4AF8040B1035B86800BA4AF8040BC1
S31508002690B145F86800BA4AF8040BC6DBC8F80090DA
S315080026A0002004B0BDE8F087002818BF002A02D130
S315080026B04FF442607047017941F002010171002030
S315080026C01060704710B940F6A3707047017901F0A1
S315080026D0F90101710021C1640165DFF81C18416523
S315080026E0DFF818188165DFF81818C165DFF8E819EA
S315080026F00166002070472DE9F04104008846174618
S3150800270018BFB8F1000F01D0002F03D540F6A3700B
S31508002710BDE8F0812079400748BF40F6A17038D45B
S31508002720E06C3D46C0F3C50697B3226D02EB5772BF
S31508002730226500EBC700E064B0EBC70F3CBF501C36
S3150800274020659EB1B8194128A8BFC6F140073019BF
S315080027503A460C3000F038FDB819402818DBB84462
S31508002760ED1B04F10C01204600F053F8402D08DB60
S315080027704146204600F04DF8403D08F14008402DFE
S31508002780F6DA2DB12A46414604F10C0000F01CFD8C
S315080027900020BDE8F08170B586B004000D461646E7
S315080027A018BF002D00D01EB940F6A37006B070BD44
S315080027B0A068401E102828BF40F6A27027D22079AC
S315080027C040F00400207100A9204600F09BFBA26897
S315080027D0002000A9012A17DB425C4255401CA2686A
S315080027E0904211DA425C4255401CA26890420BDACC
S315080027F0425C4255401CA268904205DA425C42554A
S31508002800401CA2689042E7DBA0683060002006B052
S3150800281070BD2DE9F04F80469AB0D8F85460D8F8C4
S315080028205850D8F85C70D8F860B00020009011F0C5
S31508002830030008BF0C4604D040220AA800F0C4FCD6
S315080028400AAC206809902BEA050107EA0500084347
S31508002850099930440818DFF86418081805EB706100
S315080028606068089027EA010205EA01001043089A01
S3150800287058441018DFF84828101801EB3052A068A1
S31508002880079025EA020301EA02001843079B384429
S315080028901818DFF83038181802EBF033E06806909D
S315080028A021EA030602EA030030434019069D281868
S315080028B0DFF81458281803EBB02603EA060522EABF
S315080028C0060720693D4369184118DFF8005869185A
S315080028D006EB71676169059123EA070506EA0701B0
S315080028E029438918059A5118DFF8E427511807EB88
S315080028F0315E07EA0E0226EA0E05A1692A43D218B6
S315080029008A18DFF8D0379A180EEBF235E269049286
S3150800291027EA05030EEA05021A43049B32449A186D
S31508002920DFF8B8379A1805EBB22905EA09032EEA43
S315080029300906226A33433B44D318DFF8A4673344B5
S3150800294009EB736A09EA0A0625EA0A07636A47EA87
S31508002950060BF3449B44DFF88C675E440AEB365B50
S31508002960A66A039629EA0B070AEA0B063E4335448C
S31508002970039E3544DFF8706735440BEBF53E0BEAEA
S315080029800E072AEA0E06E56A46EA070CCC44AC446A
S31508002990DFF8586766440EEBB629266B02960EEAF0
S315080029A009072BEA09063E43B244029EB244DFF801
S315080029B04067B24409EB7A6609EA060C2EEA06076E
S315080029C0D4F834A047EA0C07BB44D344DFF824778D
S315080029D05F4406EB375BA76B019706EA0B0C29EAFF
S315080029E00B0747EA0C0C019FE46BCDF80090F44402
S315080029F0BC44DFF8047767440BEBF73C6FEA0C0E30
S31508002A000BEA0C0706EA0E0949EA0709009F009631
S31508002A10B944A144DFF8E4764F440CEBB7290BEA36
S31508002A2009072CEA0B063E43009FF619089FBE19B4
S31508002A30DFF8CC76BE1909EBF6660CEA06070EEA4D
S31508002A40090E4EEA0707BB448B44DFF8B8765F44A5
S31508002A5006EBF75B09EA0B0E26EA090747EA0E07B3
S31508002A60BC44AC44DFF8A07667440BEBB74C06EAE7
S31508002A700C0E2BEA060747EA0E0E099FCE44BE4403
S31508002A80DFF8887677440CEB373E0BEA0E092CEA1A
S31508002A900B0747EA0909B144059EB144DFF8706699
S31508002AA04E440EEBF6690CEA09062EEA0C073E437D
S31508002AB0B344039EB344DFF85C665E4409EBF65BF9
S31508002AC00EEA0B0629EA0E073E43B444A444DFF88F
S31508002AD0486666440BEBB64C09EA0C062BEA09076E
S31508002AE03E43B6448644DFF8346676440CEB363EFD
S31508002AF00BEA0E062CEA0B073E43B1449944DFF86D
S31508002B0020664E440EEBF6690CEA09062EEA0C0717
S31508002B103E43B344019EB344DFF808665E4409EBBE
S31508002B20F65B0EEA0B0629EA0E073E43B444069EF8
S31508002B30B444DFF8F46566440BEBB64C09EA0C06B8
S31508002B402BEA09073E43B6449644DFF8E065764427
S31508002B500CEB363E0BEA0E062CEA0B073E43B14455
S31508002B60D144DFF8CC654E440EEBF6690CEA09064B
S31508002B702EEA0C073E43B344079EB344DFF8B46518
S31508002B805E4409EBF65B0EEA0B0629EA0E073E439E
S31508002B90B444049EB444DFF8A06566440BEBB64C17
S31508002BA009EA0C062BEA09073E43B644029EB644D8
S31508002BB0DFF8886576440CEB363E8CEA0E068BEA1F
S31508002BC00606B144059EB144DFF874654E440EEB23
S31508002BD036798EEA09068CEA0606B3449344DFF88A
S31508002BE064655E4409EB765B89EA0B068EEA06069F
S31508002BF0B444AC44DFF8506566440BEB364C8BEABC
S31508002C000C0689EA0606B644019EB644DFF83C651A
S31508002C1076440CEB762E8CEA0E068BEA0606B14451
S31508002C20089EB144DFF828654E440EEB36798EEAE5
S31508002C3009068CEA0606B3448344DFF818655E4441
S31508002C4009EB765B89EA0B068EEA0606B444049E0F
S31508002C50B444DFF8046566440BEB364C8BEA0C0685
S31508002C6089EA0606B644039EB644DFF8F06476445D
S31508002C700CEB762E8CEA0E068BEA0606B144D14496
S31508002C80DFF8DC644E440EEB36798EEA09068CEAE8
S31508002C900606B344099EB344DFF8C8645E4409EBEC
S31508002CA0765B89EA0B068EEA0606B444069EB444A9
S31508002CB0DFF8B46466440BEB364C8BEA0C0689EAFB
S31508002CC00606B6448E44DFF8A46476440CEB762EEA
S31508002CD08CEA0E068BEA0606B1449944DFF890643E
S31508002CE04E440EEB36798EEA09068CEA0606B3449C
S31508002CF0029EB344DFF87C645E4409EB765B89EA9E
S31508002D000B068EEA0606B444A444DFF86C646644EF
S31508002D100BEB364C8BEA0C0689EA0606B644079E88
S31508002D20B644DFF8586476440CEB762E6EEA0B064A
S31508002D3086EA0C06B144099EB144DFF844644E4461
S31508002D400EEBB66969EA0C0686EA0E06B344049EDB
S31508002D50B344DFF830645E4409EBB65B6BEA0E06F3
S31508002D6086EA0906B444019EB444DFF81C64664446
S31508002D700BEB764C6CEA090686EA0B06B644059E0A
S31508002D80B644DFF8086476440CEBF62E6EEA0B06BA
S31508002D9086EA0C06B144029EB144DFF8F4634E4459
S31508002DA00EEBB66767EA0C0686EA0E06B344069E7D
S31508002DB0B344DFF8E0635E4407EBB65B6BEA0E06E6
S31508002DC07E40B444039EB444DFF8CC6366440BEB00
S31508002DD0764C6CEA070686EA0B06B644089EB644A5
S31508002DE0DFF8B86376440CEBF62E6EEA0B0686EA35
S31508002DF00C063E443244DFF8A86332440EEBB26256
S31508002E0062EA0C0989EA0E06B344A344DFF8944340
S31508002E105C4402EBB45666EA0E045440644421440A
S31508002E20DFF88443214406EB714161EA020C8CEA1F
S31508002E30060CF444E244DFF87443544401EBF424EA
S31508002E4064EA060C8CEA01073A448018DFF8602326
S31508002E50101804EBB06060EA010262403244AA1816
S31508002E60DFF85053AA1800EBB25262EA040545404F
S31508002E706918079D6918DFF84053691802EB714114
S31508002E8061EA0005554025445B19DFF83053EB1815
S31508002E90DFF824520124AC6001EBF323AC680094FC
S31508002EA02C680094009C14F1010F05D1009C2C603D
S31508002EB02D680095009D3DB103FA02F001FA02F370
S31508002EC002FA00F100FA03F2D8F854504019C8F88B
S31508002ED05400D8F858001818C8F85800D8F85C00F4
S31508002EE00818C8F85C00D8F860001018C8F8600020
S31508002EF01AB0BDE8F08F00000123456789ABCDEF16
S31508002F00FEDCBA982DE9F04782B0054688460021CE
S31508002F1000A88A0805EB820201F00303D26CDB00E5
S31508002F20DA4000F8012B491C8A0805EB820201F0F9
S31508002F300303D26CDB00DA40491C00F8012B082990
S31508002F40E7DBE86C0FF23019C108C1F1370101F06F
S31508002F503F014E1C4F463446C0F3C50A38D0296D8A
S31508002F602965E96C01EBC601E964B1EBC60F02D22B
S31508002F70286D401C2865BAF1000F18D006EB0A0028
S31508002F804128A8BFCAF140060AEB05003246494661
S31508002F900C3000F019F906EB0A00402818DB06EB9E
S31508002FA00907A41B05F10C012846FFF732FC402C43
S31508002FB007DB39462846FFF72CFC4037403C402CB7
S31508002FC0F7DA2CB12246394605F10C0000F0FCF878
S31508002FD0E86CC0F3C504286D28650827E86C4030FE
S31508002FE00DF10009E864402802D2286D401C2865C6
S31508002FF024B304F108004128A8BFC4F140076019AA
S315080030003A4600A90C3000F0DFF8381940281BDBD7
S3150800301000A807EB0009C7F1080705F10C012846C7
S31508003020FFF7F7FB402F08DB49462846FFF7F1FB79
S31508003030403F09F14009402FF6DA2FB13A46494692
S3150800304005F10C0000F0C0F80420696D08F8011BB2
S31508003050696D090A08F8011B696D090C08F8011B56
S31508003060696D090E2D1D08F8011B401EEDD102B031
S31508003070BDE8F087000000008000000000000000A6
S315080030800000000000000000000000000000000032
S315080030900000000000000000000000000000000022
S315080030A00000000000000000000000000000000012
S315080030B000000000000000000030024078A46AD733
S315080030C056B7C7E8DB702024EECEBDC1AF0F7CF53E
S315080030D02AC68747134630A876543210019546FD0E
S315080030E0D8988069AFF7448BB15BFFFFBED75C8980
S315080030F02211906B937198FD8E4379A62108B449E5
S3150800310062251EF640B340C0515A5E26AAC7B6E9E4
S315080031105D102FD65314440281E6A1D8C8FBD3E725
S31508003120E6CDE121D60737C3870DD5F4ED145A4508
S3150800313005E9E3A9F8A3EFFCD9026F678A4C2A8D43
S315080031404239FAFF81F6718722619D6D0C38E5FDDB
S3150800315044EABEA4A9CFDE4B604BBBF670BCBFBE2B
S31508003160C67E9B28FA27A1EA8530EFD4051D880478
S3150800317039D0D4D9E599DBE6F87CA21F6556ACC4EC
S31508003180442229F497FF2A43A72394AB39A093FC3A
S31508003190C3595B6592CC0C8F7DF4EFFFD15D8485B6
S315080031A04F7EA86FE0E62CFE144301A3A111084E3A
S315080031B0827E53F735F23ABDBBD2D72A91D386EB36
S315080031C00121402000F054B862B38B0708D0521E84
S315080031D011F8013B00F8013B00F024808B07F6D17B
S315080031E0830740F0208000BF103A07D330B4B1E817
S315080031F03810103AA0E83810F9D230BC530724BF6B
S31508003200B1E80810A0E8081044BF51F8043B40F89C
S31508003210043BD20724BF31F8022B20F8022B44BF07
S315080032200B7803707047121F17D35B0009D151F84A
S31508003230043B20F8023B1B0C121F20F8023BF6D277
S315080032400BE051F8043B00F8013B1B0A20F8023B4F
S315080032501B0C121F00F8013BF3D238BF121D521E79
S3150800326024BF11F8013B00F8013BF8D8704700006D
S31508003270C9B2002904D013490A681043086004E05B
S3150800328010490A6832EA000008607047C9B2002986
S3150800329004D00D490A681043086004E00A490A6820
S315080032A032EA000008607047C9B2002904D007490D
S315080032B00A681043086004E004490A6832EA000014
S315080032C00860704714100240181002400C100240A3
S315080032D080B5DFF8F40300F00BFADFF8F00300F02E
S315080032E007FADFF8EC0300F003FADFF8E80300F06A
S315080032F0FFF9DFF8E40300F0FBF901BD7CB5040033
S3150800330016001D0021705FF0FF3049B2814200F0BF
S3150800331099800120217811F00F018840608020787B
S3150800332010F0F00F07D1DFF8A00360600121042038
S31508003330FFF7ACFF33E0207810F0F000102807D133
S31508003340DFF88803606001210820FFF79FFF26E069
S31508003350207810F0F000202807D1DFF874036060A9
S3150800336001211020FFF792FF19E0207810F0F000F5
S31508003370302807D1DFF85C03606001212020FFF7C1
S3150800338085FF0CE0207810F0F000402807D1DFF820
S315080033904803606001214020FFF778FFFFE7608857
S315080033A0ADF8000003208DF802003000C0B20028F6
S315080033B003D100208DF8030037E03000C0B20128A1
S315080033C003D104208DF803002FE03000C0B2022894
S315080033D003D128208DF8030027E03000C0B2032867
S315080033E003D148208DF803001FE03000C0B204283E
S315080033F003D114208DF8030017E03000C0B2052869
S3150800340003D110208DF803000FE03000C0B2062863
S3150800341003D11C208DF8030007E03000C0B207284E
S3150800342003D118208DF80300FFE76946606800F0AD
S31508003430B6F9F6B2052E05D12A00D2B261886068BF
S3150800344000F017FA73BD80B50A00002802D041685B
S315080034500029FFD190F9001011F1010F04D0D2B262
S315080034604188406800F005FA01BD80B5002890F94A
S31508003470001011F1010F01D1002003E041884068D6
S3150800348000F0EDF902BDFEB504000F0016001D00A0
S3150800349001210120FFF7FAFE60688B49884206D1B0
S315080034A0217811F00F01002000F0ECF92BE060689C
S315080034B08649884206D1217811F00F01012000F0D3
S315080034C0E1F920E060688249884206D1217811F046
S315080034D00F01022000F0D6F915E060687D498842A0
S315080034E006D1217811F00F01032000F0CBF90AE08C
S315080034F060687949884206D1217811F00F010420C5
S3150800350000F0C0F9FFE701208DF803008DF801707F
S315080035108DF802606088012803D106208DF8000026
S315080035204BE06088022803D107208DF8000044E0AC
S315080035306088042803D108208DF800003DE06088E3
S31508003540082803D109208DF8000036E06088102885
S3150800355003D10A208DF800002FE0608820280DD0BE
S31508003560608840280AD06088802807D06088B0F52F
S31508003570807F03D06088B0F5007F03D117208DF8CF
S3150800358000001AE06088B0F5806F13D06088B0F547
S31508003590006F0FD06088B0F5805F0BD06088B0F5FB
S315080035A0005F07D06088B0F5804F03D06088B0F51B
S315080035B0004F02D128208DF80000684600F09AF9DD
S315080035C06088012826D0022827D0042828D0082871
S315080035D029D010282AD020282BD040282CD0802863
S315080035E02DD0B0F5807F2DD0B0F5007F2ED0B0F568
S315080035F0806F2FD0B0F5006F30D0B0F5805F31D036
S31508003600B0F5005F32D0B0F5804F33D0B0F5004F3B
S3150800361034D037E00120019034E00220019031E0F7
S31508003620042001902EE0082001902BE01020019044
S3150800363028E02020019025E04020019022E080200B
S3150800364001901FE04FF4807001901BE04FF400706A
S31508003650019017E04FF48060019013E04FF400608A
S3150800366001900FE04FF4805001900BE04FF40050AA
S31508003670019007E04FF48040019003E04FF40040CA
S315080036800190FFE72800C0B2002803D108208DF872
S3150800369009000EE02800C0B2012803D10C208DF8DD
S315080036A0090006E0EDB2022D03D110208DF80900BD
S315080036B0FFE701208DF80A0000208DF8080001A810
S315080036C000F050F9F7BD000000080140000C014069
S315080036D000100140001401400018014080B54088E0
S315080036E000F07CF902BD80B5408800F087F901BD7D
S315080036F080B57849884208D101210420FFF7D4FD16
S3150800370000210420FFF7D0FD48E07349884208D11C
S3150800371001210820FFF7C8FD00210820FFF7C4FD96
S315080037203CE06E49884208D101211020FFF7BCFD14
S3150800373000211020FFF7B8FD30E06949884208D11A
S3150800374001212020FFF7B0FD00212020FFF7ACFD66
S3150800375024E06449884208D101214020FFF7A4FDEE
S3150800376000214020FFF7A0FD18E05F49884208D1F4
S3150800377001218020FFF798FD00218020FFF794FDA6
S315080037800CE05A49884209D101214FF48070FFF7AD
S315080037908BFD00214FF48070FFF786FD01BDF0B464
S315080037A0002200220022002200220022CB7813F0F9
S315080037B00F03CA78D20601D58A7813430A78120607
S315080037C020D0066800241AE0CA78482A16D1A740ED
S315080037D0076113E0012717FA04F50A882A40AA4266
S315080037E00CD1A2000F259540AE4313FA02F23243DC
S315080037F01600CA78282AE7D1A7404761641C082C16
S31508003800E8D306600A88B2F5807F26DB466800247E
S3150800381020E0012714F1080517FA05F50A882A4059
S31508003820AA4216D1A2000F259540AE4313FA02F21A
S3150800383032431600CA78282A04D114F1080217FA66
S3150800384002F24261CA78482A03D114F10802974065
S315080038500761641C082CDCD34660F0BC7047002264
S31508003860806889B2084201D0012000E00020C0B279
S315080038707047D2B2002A02D089B2016101E089B24A
S315080038804161704710B400220F2311F00302D2B22F
S31508003890920013FA02F2164B0C00E4B2A41053F885
S315080038A0244034EA02020C00E4B2A41043F82420AF
S315080038B00A00D2B2921053F82240C0B211F00302A5
S315080038C0D2B2920090402043C9B2891043F8210031
S315080038D010BC704700080140000C01400010014070
S315080038E00014014000180140001C0140002001405E
S315080038F008000140002100210F23C17800291ED0AD
S315080039001449096811F4E061D1F5E061090AD1F1B9
S315080039100402CB40417811FA02F281780B401A432F
S3150800392012010D490378CA540121027812F01F02C8
S3150800393091400A4A0078401142F8201009E0012116
S31508003940027812F01F029140054A0078401142F8A9
S31508003950201070470CED00E000E400E000E100E014
S3150800396080E100E030B40021264A1300817900295D
S315080039702CD0244C256801688D432560224C256887
S3150800398001688D4325600179CB181C6801680C43D2
S315080039901C601E4B1C6801688C431C601C4C256807
S315080039A001688D4325604179102908D11A68016894
S315080039B00A431A6021680068014321600CE04179D6
S315080039C08A18116800680143116005E00179CB186F
S315080039D0196800688143196030BC704700210021CE
S315080039E00849096801400B4A1268024203D00029B7
S315080039F001D0012000E00020C0B2704705490860E8
S31508003A007047000000040140040401400804014016
S31508003A100C040140140401400021DFF8E02011687D
S31508003A2011F03801084310607047DFF8D400DFF85A
S31508003A30D4100160DFF8D01001607047DFF8CC00C1
S31508003A40016851F080010160704738B50400042010
S31508003A505FF4302000F060F80100C9B2042915D1DE
S31508003A60DFF8A850286850F002002860DFF8A000A8
S31508003A700460286850F0400028605FF4302000F0A9
S31508003A804BF82A6841F6FD710A402A60C0B232BD79
S31508003A9070B504000D0004204FF4005000F03CF807
S31508003AA00100C9B204290FD1DFF86060306850F010
S31508003AB00100306025804FF4005000F02DF8326880
S31508003AC041F6FE710A403260C0B270BD1149086005
S31508003AD0704704200F480168C90701D501200AE08C
S31508003AE00168490701D5022005E00068C00601D52E
S31508003AF0032000E00420C0B2704700000020024006
S31508003B000420024023016745AB89EFCD102002400F
S31508003B10142002400C20024010B504000420FFF7D0
S31508003B20D8FF02E0FFF7D5FF641E0100C9B20129DC
S31508003B3001D1002CF6D1002C00D10520C0B210BD51
S31508003B4080B53E49086850F0010008603C4A136891
S31508003B503C48034013600B683B4803400B60086809
S31508003B6030F480200860106830F4FE0010605FF4BE
S31508003B701F003649086000F005F85FF00060344918
S31508003B80086001BD80B500F001F801BD82B00020D3
S31508003B900190002000902949086850F48030086098
S31508003BA0086810F4003000900198401C01900098B5
S31508003BB0002803D10198B0F5A06FF1D108688003F9
S31508003BC002D50120009001E000200090009801280D
S31508003BD031D12048026852F0100202600268920849
S31508003BE092000260026852F00202026014480268FB
S31508003BF0026002680260026852F48062026002682B
S31508003C0032F47C120260026852F4E81202600A6812
S31508003C1052F080720A600A689201FCD50168890828
S31508003C2089000160016851F002010160016811F024
S31508003C300C010829FAD102B07047000000100240B2
S31508003C40041002400000FFF8FFFFF6FE08100240CD
S31508003C5008ED00E000200240F8B504000D0016004B
S31508003C60002708E0380080B235F810102000FFF76A
S31508003C700FFFA41C7F1C3800310080B289B288422D
S31508003C80F0D3F1BD2DE9F04104000D001600002720
S31508003C90B4F10060B0F5002F02D35FF0FF301CE0EE
S31508003CA0FFF7C3FE0220FFF7B7FE3520FFF70EFF2A
S31508003CB02000FFF7CAFE0428FAD1300080B2012896
S31508003CC00DD128780743390089B22000FFF7E0FEB6
S31508003CD00428F8D1FFF7B2FE0020BDE8F0810027DE
S31508003CE008E0414689B22000FFF7D2FE0428F8D141
S31508003CF0A41C7F1C3800310080B289B28842E9D200
S31508003D00380080B205EB40004078390089B215F8D2
S31508003D10118058EA0028E4E700887047F8B50400DF
S31508003D200D001600002708E02000FFF7F5FF390010
S31508003D3089B225F81100A41C7F1C3800310080B216
S31508003D4089B28842F0D3F1BD02B501226946FFF770
S31508003D5099FF02BDF0B59DB004000D0016001F00C6
S31508003D600020FFF72DFA1020029000208DF804009D
S31508003D706846FEF7A7FC00280BD12A0021006846F2
S31508003D80FEF7B9FC002804D13A0031006846FEF770
S31508003D9002FD1DB0F0BD70B5C8B005000E001100DB
S31508003DA01C0000200020019000208DF80C00102037
S31508003DB00B90002202A8FEF72DFB002817D101A8B8
S31508003DC0009023003200290002A8FEF749FB0028CC
S31508003DD00DD14C9D0198286001AA286804EB0001C2
S31508003DE002A8FEF7A2FB2A6801998A182A6048B039
S31508003DF070BD70B5C8B005000E0011001C0000208B
S31508003E000020019000208DF80C0010200B90002255
S31508003E1002A8FEF799FB002817D101A800902300F5
S31508003E203200290002A8FEF7D5FB00280DD14C9DCB
S31508003E300198286001AA286804EB000102A8FEF789
S31508003E4033FC2A6801998A182A6048B070BD0000B8
S31508003E502DE9F041FFF73CFA344D012305221B21D9
S31508003E602800FFF74BFA324E012305221E213000A7
S31508003E70FFF744FA2F4F0123052209213800FFF7DF
S31508003E803DFADFF8B480012305220C214046FFF7EE
S31508003E9035FA00F081F862B6002426E000212800F1
S31508003EA0FFF7D1FA00213000FFF7CDFA00213800DC
S31508003EB0FFF7C9FA00214046FFF7C5FA642000F06B
S31508003EC078F801212800FFF7BEFA01213000FFF734
S31508003ED0BAFA01213800FFF7B6FA01214046FFF782
S31508003EE0B2FA642000F065F8641C052CD6DB134C86
S31508003EF001212000FFF728FF0028F8D12000FFF74E
S31508003F000BFFC0B201280BD100212800FFF79BFA4E
S31508003F1000213000FFF797FA094800F063F803E03C
S31508003F2000213800FFF78FFAFEE700BF08000020DF
S31508003F3010000020180000202000002000FC0008C7
S31508003F4000800008020052B2002A08D509011C4A5E
S31508003F5040B210F00F00104400F8041C03E00901F9
S31508003F60184A40B21154704780B5B0F1807F01D32A
S31508003F70012010E020F07F40401E134908600F2101
S31508003F805FF0FF30FFF7DEFF0020104908600720CA
S31508003F900F490860002002BD80B50E4800684FF43E
S31508003FA07A71B0FBF1F0FFF7DFFF002800D0FEE7DB
S31508003FB001BD0949086008680028FCD1704700005F
S31508003FC018ED00E000E400E014E000E018E000E08E
S31508003FD010E000E0000000202800002080F3088898
S31508003FE07047704710B5026807490A40B2F1005F8A
S31508003FF009D1064C011D096821600068FFF7EEFF2C
S3150800400072B62068804710BD0000FE2F040000200D
S3150800401030B5016884684218416802EB5103C90744
S315080040200BD54C4409E012F9011B12F8015B002973
S3150800403004F8015B05D5491CF9D19A42F3D10C3035
S3150800404030BD491EF1D5F8E710B50749794418314E
S31508004050064C7C44163404E00A68081D1144884757
S315080040600146A142F8D110BD2C000000380000001E
S315080040707047FEE7FEE7FEE7FEE7704770477047C2
S3150800408003490868002802D00868401E086070477F
S31508004090280000207DFFFFFF600100000E000000E1
S315080040A00000002000F00DF8002801D0FFF7CCFF33
S315080040B0AFF300800020AFF30080FFF7C9FE00F0E1
S315080040C002F80120704700F001B80000074638469C
S315080040D000F002F8FBE7000080B5AFF30080024A63
S315080040E011001820ABBEFBE72600020001488047F6
S315080040F001480047413B0008FD400008AFF3008037
S31508004100AFF30080FFF7CEFFFFF7FEBFFFF7FEBF56
S31508004110FFF7FEBFFFF7FEBFFFF7FEBFFFF7FEBFC5
S31508004120FFF7FEBFFFF7FEBFFFF7FEBFFFF7FEBFB5
S31508004130FFF7FEBFFFF7FEBFFFF7FEBFFFF7FEBFA5
S31508004140FFF7FEBFFFF7FEBFFFF7FEBFFFF7FEBF95
S31508004150FFF7FEBFFFF7FEBFFFF7FEBFFFF7FEBF85
S31508004160FFF7FEBFFFF7FEBFFFF7FEBFFFF7FEBF75
S31508004170FFF7FEBFFFF7FEBFFFF7FEBFFFF7FEBF65
S31508004180FFF7FEBFFFF7FEBFFFF7FEBFFFF7FEBF55
S31508004190FFF7FEBFFFF7FEBFFFF7FEBFFFF7FEBF45
S315080041A0FFF7FEBFFFF7FEBFFFF7FEBFFFF7FEBF35
S315080041B0FFF7FEBFFFF7FEBFFFF7FEBFFFF7FEBF25
S315080041C0FFF7FEBFFFF7FEBFFFF7FEBFFFF7FEBF15
S315080041D0FFF7FEBFFFF7FEBFFFF7FEBFFFF7FEBF05
S315080041E0FFF7FEBFFFF7FEBFFFF7FEBFFFF7FEBFF5
S314080041F0FFF7FEBFFFF7FEBF0300A24A04D80081
S3150800F800553D0008973D0008F33D0008D132000831
S3150800F810FD32000887340008473400086B340008B6
S3150800F820DD360008E7360008993F0008193D00084C
S3150800F830593C0008193D0008853C00081D3D000894
S3090800F840493D000828
S705080040FDB5
